:1000000021EF06F00000000000EF00F0000000000B
:0A0010000000000000000000F3D71C
:0C001C005FB002D08B9801D08B881200DE
:0C0028005FB002D08B9601D08B861200D6
:0C0034005FB002D08D9201D08D821200CE
:0C0040005FB002D08B9401D08B841200C2
:0C004C005FB002D08B9C01D08B8C1200A6
:0C0058005FB002D08B9E01D08B8E120096
:0C0064005FB002D08A9201D08A821200A4
:0C0070005FB002D0899801D0898812008E
:0C007C005FB002D08B9E01D08B8E120072
:0C0088005FB002D08A9001D08A80120084
:0C0094005FB002D08B9201D08B82120072
:0C00A0005FB002D08B9C01D08B8C120052
:0C00AC005FB002D0899201D0898212005E
:0C00B8005FB002D08B9801D08B88120042
:0C00C4005FB002D08B9601D08B8612003A
:0C00D0005FB002D08B9801D08B8812002A
:0C00DC005FB002D08B9A01D08B8A12001A
:0C00E8005FB002D08B9A01D08B8A12000E
:0C00F4005FB002D08B9801D08B88120006
:0C0100005FB002D08B9601D08B861200FD
:0C010C005FB002D08A9401D08A841200F7
:0C0118005FB002D08F9401D08F841200E1
:0C0124005FB002D08B9601D08B861200D9
:0C0130005FB002D0899401D089841200D5
:0C013C005FB002D08B9801D08B881200BD
:0C0148005FB002D08B9601D08B861200B5
:0C0154005FB002D08D9601D08D861200A5
:0C0160005FB002D08F9001D08F801200A1
:0C016C005FB002D08F9201D08F82120091
:0C0178005FB002D08D9401D08D84120085
:0C0184005FB002D08B9A01D08B8A120071
:0C0190005FB002D0899001D0898012007D
:10019C000F0121B302D00000FBD75FC01CFF12007F
:0E01AC00ACB202D00000FCD75FC0ADFF120065
:0C01BA005FB002D08B9001D08B8012004F
:0C01C6005FB002D08B9801D08B88120033
:0C01D2005FB002D08B9601D08B8612002B
:0C01DE005FB002D08D9001D08D80120027
:1001EA00AC0E386E010E396E5F0E3A6E000E3B6E23
:1001FA00FF0E3C6EFF0E3D6E000E3E6E000E3F6E11
:10020A00FF0E446EFF0E456E000E466E000E476EE0
:10021A00FF0E506EFF0E516E000E526E000E536EA0
:10022A00AC8A900EAB6E948E949C9EAA03D0AECFED
:06023A0000F0FBD71200EA
:100240009C0E386E010E396E5F0E3A6E000E3B6EDC
:10025000FF0E3C6EFF0E3D6E000E3E6E000E3F6EBA
:10026000FF0E446EFF0E456E000E466E000E476E8A
:10027000FF0E506EFF0E516E000E526E000E536E4A
:100280000F01218B900E226F98849892A4AA03D01C
:080290001DCF00F0FBD71200A6
:10029800F250026EF29E0500FF6A0150FE6E005099
:0802A800FD6E02BEF28E120091
:1002B00021D0CF0EAF6EAC9498DF6AD0670EAF6ED0
:1002C000AC9493DF65D0CF0EAF6EAC848EDF60D080
:1002D000670EAF6EAC8489DF5BD0440EAF6EAC842A
:1002E00084DF56D0220EAF6EAC847FDF51D0060E75
:1002F000006E57D0000E006E5E1808E100505D18C9
:1003000005E1120E5C1802E15B50C00AD2E0000E5B
:10031000006E5E1808E100505D1805E1250E5C18BE
:1003200002E15B50800ACAE0000E006E5E1808E130
:1003300000505D1805E14B0E5C1802E15B50000AAD
:10034000C2E0000E006E5E1808E100505D1805E185
:10035000960E5C1802E15B50000ABAE0000E006ED7
:100360005E1808E100505D1805E1E10E5C1802E13D
:100370005B50000AB2E05E50000A08E15D50010ADD
:1003800005E15C50C20A02E15B50000AABE0AFD766
:10039000AC0E406E010E416E5F0E426E000E436E5B
:0403A000006A1200DD
:1003A40021D0CF0EAF6EAC941EDF6AD0670EAF6E55
:1003B400AC9419DF65D0CF0EAF6EAC8414DF60D07F
:1003C400670EAF6EAC840FDF5BD0440EAF6EAC84AF
:1003D4000ADF56D0220EAF6EAC8405DF51D0060E74
:1003E400006E57D0000E006E5E1808E100505D18D4
:1003F40005E1120E5C1802E15B50C00AD2E0000E67
:10040400006E5E1808E100505D1805E1250E5C18C9
:1004140002E15B50800ACAE0000E006E5E1808E13B
:1004240000505D1805E14B0E5C1802E15B50000AB8
:10043400C2E0000E006E5E1808E100505D1805E190
:10044400960E5C1802E15B50000ABAE0000E006EE2
:100454005E1808E100505D1805E1E10E5C1802E148
:100464005B50000AB2E05E50000A08E15D50010AE8
:1004740005E15C50C20A02E15B50000AABE0AFD771
:10048400AC0E406E010E416E5F0E426E000E436E66
:04049400006A1200E8
:1004980038D00F0120870D0E1F6F040E1E6F2185A7
:1004A800CBDE7DD00F012087060E1F6F820E1E6FD8
:1004B8002185C2DE74D00F012087030E1F6F400E06
:1004C8001E6F2185B9DE6BD00F012087010E1F6FCB
:1004D800A00E1E6F2185B0DE62D00F012087010EAD
:1004E8001F6F150E1E6F2185A7DE59D00F012087BB
:1004F8001F6B8A0E1E6F21859FDE51D0060E006E7F
:1005080057D0000E006E5E1808E100505D1805E136
:10051800120E5C1802E15B50C00ABBE0000E006ED0
:100528005E1808E100505D1805E1250E5C1802E12F
:100538005B50800AB7E0000E006E5E1808E10050BC
:100548005D1805E14B0E5C1802E15B50000AB3E050
:10055800000E006E5E1808E100505D1805E1960E69
:100568005C1802E15B50000AAFE0000E006E5E18F6
:1005780008E100505D1805E1E10E5C1802E15B50EE
:10058800000AABE05E50000A08E15D50010A05E18F
:100598005C50C20A02E15B50000AA8E0AFD79C0E8B
:1005A800406E010E416E5F0E426E000E436E006A91
:0205B80012002F
:1005BA0021D0CF0EAF6EAC9413DE6AD0670EAF6E49
:1005CA00AC940EDE65D0CF0EAF6EAC8409DE60D07F
:1005DA00670EAF6EAC8404DE5BD0440EAF6EAC84A3
:1005EA00FFDD56D0220EAF6EAC84FADD51D0060E76
:1005FA00006E57D0000E006E5E1808E100505D18BC
:10060A0005E1120E5C1802E15B50C00AD2E0000E4E
:10061A00006E5E1808E100505D1805E1250E5C18B1
:10062A0002E15B50800ACAE0000E006E5E1808E123
:10063A0000505D1805E14B0E5C1802E15B50000AA0
:10064A00C2E0000E006E5E1808E100505D1805E178
:10065A00960E5C1802E15B50000ABAE0000E006ECA
:10066A005E1808E100505D1805E1E10E5C1802E130
:10067A005B50000AB2E05E50000A08E15D50010AD0
:10068A0005E15C50C20A02E15B50000AABE0AFD759
:10069A00AC0E406E010E416E5F0E426E000E436E4E
:0406AA00006A1200D0
:1006AE004DD05CB002D0929001D092800F01259176
:1006BE006AD05CB002D0949001D0948064D05CB0CB
:1006CE0002D0969001D096805ED05CB002D0949607
:1006DE0001D0948658D05CB002D0949801D0948802
:1006EE0052D05CB002D0949A01D0948A4CD05CB0B7
:1006FE0002D0949201D0948246D05CB002D09390F6
:10070E0001D0938040D05CB002D0949E01D0948EE4
:10071E003AD05CB002D0949C01D0948C34D05CB0B2
:10072E0002D0949601D094862ED05CB002D09498CC
:10073E0001D0948828D0010E006E27D05B50000A9D
:10074E00B0E05B50010AB5E05B50020AB8E05B50C6
:10075E00030ABBE05B50040ABEE05B50050AC1E031
:10076E005B50060AC4E05B50070AC7E05B50080AFC
:10077E00CAE05B50090ACDE05B500A0AD0E05B503C
:0C078E000B0AD3E0D8D7000E006E12005A
:10079A0042C0E1FF43C0E2FF5BC0E9FF5CC0EAFF81
:1007AA00EECFE6FF40C000F041C001F070DD006A04
:0207BA0012002B
:1007BC004DD05CB002D0929201D092820F01259361
:1007CC006AD05CB002D0929801D0928864D05CB0B0
:1007DC0002D0969201D096825ED05CB002D09496F4
:1007EC0001D0948658D05CB002D0949801D09488F3
:1007FC0052D05CB002D0949A01D0948A4CD05CB0A8
:10080C0002D0949401D0948446D05CB002D09392E0
:10081C0001D0938240D05CB002D0949E01D0948ED3
:10082C003AD05CB002D0949C01D0948C34D05CB0A3
:10083C0002D0949601D094862ED05CB002D09498BD
:10084C0001D0948828D0010E006E27D05B50000A8E
:10085C00B0E05B50010AB5E05B50020AB8E05B50B7
:10086C00030ABBE05B50040ABEE05B50050AC1E022
:10087C005B50060AC4E05B50070AC7E05B50080AED
:10088C00CAE05B50090ACDE05B500A0AD0E05B502D
:0C089C000B0AD3E0D8D7000E006E12004B
:1008A800080E5B24F66E000E5C20F76E000E5D20CD
:1008B800F86E0900F5CF48F00900F5CF49F00900B6
:1008C800F5CF4AF00900F5CF4BF0180E5B24F66E11
:1008D800000E5C20F76E000E5D20F86E0900F5CF63
:1008E8004CF00900F5CF4DF00900F5CF4EF00900A6
:0608F800F5CF4FF01200E5
:1008FE0051D05CB002D0929401D092840F01259514
:10090E006ED05CB002D0969601D0968668D05CB060
:10091E0002D0969401D0968462D05CB002D09496A8
:10092E0001D094865CD05CB002D0949801D09488AB
:10093E0056D05CB002D0949A01D0948A50D05CB05C
:10094E0002D0989001D098804AD05CB002D0939497
:10095E0001D0938444D05CB002D0989401D0988496
:10096E000F0123953CD05CB002D0989201D09882B2
:10097E000F01239334D05CB002D0949601D09486AC
:10098E002ED05CB002D0949801D0948828D0010E5D
:10099E00006E27D05B50000AACE05B50010AB1E05C
:1009AE005B50020AB4E05B50030AB7E05B50040AE6
:1009BE00BAE05B50050ABDE05B50060AC0E05B5032
:1009CE00070AC3E05B50080AC6E05B50090ACBE099
:1009DE005B500A0AD0E05B500B0AD3E0D8D7000E6A
:0409EE00006E120085
:1009F20015D055C05BF056C05CF058DE19D055C01A
:100A02005BF056C05CF0D9DE13D055C05BF056C027
:100A12005CF074DF0DD0010E006E0AD05450000A53
:100A2200E8E05450010AEBE05450020AEEE0F3D73A
:020A32001200B0
:100A34002BD055C05BF056C05CF057C05DF058C079
:100A44005EF034DC2ED055C05BF056C05CF057C06D
:100A54005DF058C05EF0A4DC24D055C05BF056C0F5
:100A64005CF057C05DF058C05EF014DD1AD055C07C
:100A74005BF056C05CF057C05DF058C05EF09BDD83
:100A840010D0010E006E0DD05450000AD2E0545024
:100A9400010AD9E05450020AE0E05450100AE7E099
:040AA400F0D7120075
:100AA8004AC0E1FF4BC0E2FF54C0E6FF48C000F077
:0A0AB80049C001F04CEC01F01200FF
:100AC2004EC0E1FF4FC0E2FF54C0E6FF4CC000F051
:0A0AD2004DC001F04CEC01F01200E1
:100ADC0054C057F055C058F00D0E596E0A0E5A6E90
:100AEC0031D057C05BF058C05CF051DE35D057C0E8
:100AFC00E9FF58C0EAFFEE5208E057C05BF058C05F
:100B0C005CF045DE574A582AF2D726D057C0E9FF89
:100B1C0058C0EAFFEE5208E057C05BF058C05CF0DA
:100B2C0036DE574A582AF2D7590E5B6E000E5C6EB1
:100B3C002EDE5A0E5B6E000E5C6E29DE0DD0060E9C
:100B4C00006E0BD05650000ACCE05650010ACFE094
:0C0B5C005650020ADBE0F3D7006A1200DA
:100B680054C05BF055C05CF056C05DF099DE1200D1
:100B7800546A020E556E566A38DF546A060E556E70
:100B8800566A33DF100E546E800E556E250E566E63
:100B9800000E576E586E4ADF090E0B6E1E0E0C6E55
:100BA800E40E0D6E0D2EFED70C2EFCD70B2EFAD7A9
:040BB8000000120027
:100BBC000900F5CFE6FF0006FBE10106F9E11200A2
:100BCC00010E546E6BDF010E546E75DF270E546EE2
:100BDC00000E556E020E566E7BDF520E0B6E2B0EF8
:100BEC000C6E000E0D6E0D2EFED70C2EFCD70B2EA0
:100BFC00FAD70000546A52DF546A5DDF150E546E4A
:100C0C00000E556E020E566E63DF520E0B6E2B0EDF
:100C1C000C6E000E0D6E0D2EFED70C2EFCD70B2E6F
:060C2C00FAD700001200DF
:100C3200500E546E0C0E556E000E566E94DF12005E
:0E0C42006AEC06F098DFF4DFC0DFFED7FFD7C4
:100CD40010EE15F0230E006E010E016EB00EF66ECE
:0E0CE4000C0EF76E000EF86EDEEC05F012003E
:100C500090015F00BA015F00DE015F00D2015F001A
:100C6000C6015F0084015F0094005F0088005F00A0
:100C70007C005F00A0005F00C4005F00B8005F0060
:100C8000FFFFFFFFFFFFFFFFFFFFFFFFFFFFFFFF74
:100C9000FFFFFFFFFFFFFFFFFFFFFFFFFFFFFFFF64
:100CA000FFFFFFFFFFFFFFFFFFFFFFFFFFFFFFFF54
:100CB00052656C617973207475726E6564206F661D
:020CC0006600CC
:100CC20052656C617973207475726E6564206F6E03
:010CD2000021
:020000040030CA
:0E00000015137F7CF98B91FFFFC0FFE0FF40DE
:00000001FF
